:100000000C9449000C9402070C9402070C9402070C
:100010000C9402070C9402070C9402070C9402073C
:100020000C9402070C9402070C9402070C9402072C
:100030000C9402070C9402070C9411040C94020710
:100040000C9402070C9402070C9402070C9402070C
:100050000C9402070C9444060C9402070C940207BB
:100060000C9402070C9402070C9402070C940207EC
:100070000C9402070C942E050C9477030C94020741
:100080000C9402070C9402070C9402070100010C67
:10009000800011241FBECFEFD0E1DEBFCDBFECE862
:1000A000F0E040E019C0B791A791379127910791EF
:1000B00007FD0EC097918791EF01F92FE82F0BBF35
:1000C00007900D92A217B307D9F7FE011BBE04C01B
:1000D0001D92A217B307E1F7E139F40721F70E9457
:0A00E000D7060C947300F894FFCFCC
:1000EA003C7E31204C6F772062617474657279218D
:1000FA00003C543D25782020204D3D25780A573D67
:10010A002578202020423D2578003C7E30547261BB
:10011A006E736D697474696E6720746F0A206C6FF0
:05012A0067676572002B
:100130002F923F924F926F927F928F929F92AF92A7
:10014000BF92CF92DF92EF92FF920F931F93CF93C4
:10015000DF93CDB7DEB762970FB6F894DEBF0FBE60
:10016000CDBF6C013A01862E7901FC011086178201
:10017000848181FFEBC19E012F5F3F4F3D872C871C
:10018000C901A0E8888B998BAA8B9FE3992EF30174
:10019000582D0E94DE06862F662309F4D3C1482D10
:1001A00093012F5F3F4F4F4F653219F03901842E75
:1001B0000BC0F901542F0E94DE06862F92E0690ED3
:1001C000711C811C653229F4B60190E00E948C04F8
:1001D000DECFB12C00E010E01032A0F48B3269F0D9
:1001E00030F4803259F0833269F410612CC08D32C2
:1001F00039F0803339F4116026C01260146023C0D6
:10020000186021C017FD2AC090ED980F9A3078F43D
:1002100016FF06C0AAE0BA9E900D1124B92E13C095
:10022000EAE00E9F900D1124092F10620CC08E324F
:1002300021F416FD87C1106406C08C3611F41068D5
:1002400002C0883659F4F301582D0E94DE06862F2D
:10025000FFEF6F1A7F0A8F0A6111BECF982F9F7D23
:100260009554933028F424E0E20EF11C99820FC0DB
:10027000833631F0833791F0833509F064C027C0AD
:10028000F7018081898397012E5F3F4F790128888C
:1002900039884A88AA24A394B12C17C0A7014D5FBE
:1002A0005F4F5F874E87F70120803180428016FFC5
:1002B00003C04B2D50E002C04FEF5FEF842DB10122
:1002C0000E9458055C01EE84FF841F7718C09701D7
:1002D0002D5F3F4F3F872E87F7012080318042807E
:1002E00016FF03C04B2D50E002C04FEF5FEF842D8F
:1002F000B1010E9458055C011068EE84FF8413FD73
:100300001EC0802F90E0A816B906C8F4B60180E29E
:1003100090E00E948C040150F4CFF101542D0E9412
:10032000DE06862FFFEF2F1A3F0A4F0AB60190E034
:100330000E948C040111015021E0A21AB108A114FD
:10034000B10459F7F5C0843611F0893671F5F7011B
:1003500017FF08C0608171818281938197012C5FB2
:100360003F4F09C060817181072E000C880B990BEB
:1003700097012E5F3F4F79011F76312E97FF0AC0FC
:1003800090958095709561957F4F8F4F9F4F312F3E
:100390003068332E2AE030E0AE014F5F5F4F0E949D
:1003A000C002482E4C85441A4AC0853729F41F7E66
:1003B000A12E2AE030E025C0512F597FA52E8F367F
:1003C000C1F018F4883579F0BDC0803719F088374E
:1003D00021F0B8C0852F8061A82EA4FE0DC09A2DF3
:1003E0009460A92E09C014FF0AC0A52FA660AA2EEA
:1003F00006C028E030E005C020E130E002C020E186
:1004000032E0F701A7FE08C060817181828193818B
:10041000A7014C5F5F4F07C06081718180E090E071
:10042000A7014E5F5F4F7A01AE014F5F5F4F0E94A1
:10043000C002482E5C85451A8A2D8F77382E36FEED
:100440000DC0932D9E7FA92E4B1458F434FE0BC083
:1004500032FC09C0A32DAE7EAA2E05C0142DA32CFC
:1004600003C0142D01C01B2DA4FE0EC0FE01E40D1F
:10047000F11D8081803321F4EA2DE97EAE2E08C083
:10048000A2FE05C01E5F04C08A2D867809F01F5F9A
:10049000A3FC11C0A0FE06C0101788F4040DB02EF6
:1004A000B11A0EC0101760F4B60180E290E00E940D
:1004B0008C041F5FF7CF101718F4011B02C0B42C77
:1004C00000E0A4FE10C0B60180E390E00E948C041E
:1004D000A2FE17C0A1FC03C088E790E002C088E537
:1004E00090E0B6010CC08A2D867859F0A1FE02C0BA
:1004F0008BE201C080E2A7FC8DE2B60190E00E9491
:100500008C044B1438F4B60180E390E00E948C0414
:10051000BA94F7CF4A94E1E0F0E0EC0FFD1FE40D50
:10052000F11D8081B60190E00E948C044110F2CF51
:10053000002309F42CCEB60180E290E00E948C04E6
:100540000150F6CFF6018781908502C08FEF9FEFB3
:1005500062960FB6F894DEBF0FBECDBFDF91CF918C
:100560001F910F91FF90EF90DF90CF90BF90AF90D1
:100570009F908F907F906F904F903F902F90089515
:10058000FA01AA27283051F1203181F1E8946F93C4
:100590006E7F6E5F7F4F8F4F9F4FAF4FB1E03ED06A
:1005A000B4E03CD0670F781F891F9A1FA11D680F08
:1005B000791F8A1F911DA11D6A0F711D811D911D3B
:1005C000A11D20D009F468943F912AE0269F1124B0
:1005D0003019305D3193DEF6CF010895462F477014
:1005E000405D4193B3E00FD0C9F7F6CF462F4F706F
:1005F000405D4A3318F0495D31FD4052419302D0CD
:10060000A9F7EACFB4E0A695979587957795679572
:10061000BA95C9F700976105710508959B01AC0172
:100620000A2E06945795479537952795BA95C9F799
:0C063000620F731F841F951FA01D08950A
:10063C000F931F93CF93DF93CDB7DEB7C055D1097E
:10064C000FB6F894DEBF0FBECDBF0E94EB062FEFA6
:10065C0080E792E0215080409040E1F700C000001C
:10066C008091060190910701843191053CF440E0A2
:10067C006AEE70E080E00E94D00327C09F938F93B6
:10068C00E0E0F1E085818F9384818F9383818F9358
:10069C0082818F9381818F9380818F938BEF90E0F8
:1006AC00A0E0AF939F938F938E010F5F1F4F1F930B
:1006BC000F930E94FE04B80180E840E00E94D00332
:1006CC000FB6F894DEBF0FBECDBFC05BDF4F0FB6C9
:1006DC00F894DEBF0FBECDBFDF91CF911F910F916C
:0206EC0008956F
:1006EE001F920F920FB60F9211240BB60F922F93EB
:1006FE003F934F935F936F937F938F939F93AF939C
:10070E00BF93CF93EF93FF9385B78F7D85BFC09136
:10071E009C008C2F0E94A806811108C080EE0E94BA
:10072E00DB050E9466060E94D0061FC0C07E81F4C3
:10073E0080910B0181110E94820681E080930B0152
:10074E0010920A011092090180E40E9466060DC003
:10075E00C03E29F480910A010E94660606C0C0348C
:10076E0021F410920A0110920901FF91EF91CF919D
:10077E00BF91AF919F918F917F916F915F914F91AB
:10078E003F912F910F900BBE0F900FBE0F901F90A9
:02079E001895AC
:1007A000CF92DF92EF921F93CF93DF936B01E82EEE
:1007B000142F842F0E948F05C1E0D0E01EC06E3739
:1007C00089F42196AE2DC6018C0F9D1FA11DD7FD6A
:1007D000AA95FC015A2F0E94DE0680ED860F0E942A
:1007E000F1060AC06A3029F41F5F812F0E948F052D
:1007F00003C0862F0E94F1062196AE2DC6018C0FF4
:100800009D1FA11DD7FDAA95FC015A2F0E94DE064F
:100810006111D5CFDF91CF911F91EF90DF90CF90F5
:02082000089539
:100822001F920F920FB60F9211240BB60F922F93B5
:100832003F934F935F936F937F938F939F93AF9366
:10084200BF93CF93EF93FF931EBC78940E947405DD
:100852000E94C80484ED9EEC9093890080938800E6
:10086200C5E0C0938A000E949C0680E697E69DBD83
:100872008CBDCEBDFF91EF91CF91BF91AF919F9172
:100882008F917F916F915F914F913F912F910F9037
:0C0892000BBE0F900FBE0F901F9018952A
:10089E00982F907E262F2295220F220F207C669570
:1008AE006695603210F085E3682770E0660F771F5B
:1008BE00422F441F4427441F642B220F603210F036
:1008CE0085E36827462F50E0440F551F221F22272D
:1008DE00221F242B203210F085E3282760E070E0E1
:1008EE000FC030E0220F331F492F441F4427441FEF
:1008FE00242B990F203210F085E328276F5F7F4F4E
:0A090E006830710574F3822F08951C
:100918000F931F93CF93DF93FB01248121FD03C025
:100928008FEF9FEF2CC022FF16C04781508525818D
:1009380036814217530744F4A081B1819D012F5F8E
:100948003F4F318320838C93278130852F5F3F4F22
:100958003087278314C08B01EC01FB010184F285E9
:10096800E02D0995892BE1F6D80117968D919C9178
:100978001897019618969C938E931797CE01DF913E
:08098800CF911F910F9108951A
:10099000CF930E94EB0640E064E171E080E00E94AA
:1009A000D003C0E025C0EC2FF0E0EE0FFF1FE050B9
:1009B000FF4F8081806A80930A0191E09093090142
:1009C0000E9466068DE08A95F1F7000060910A01A9
:1009D00080E20E944F0480620E94660604C085B7D0
:1009E000806285BF8895809109018130C1F3CF5F16
:0C09F000C430C8F20E941E03CF9108958D
:1009FC000F931F93CF93DF93CDB7DEB72F970FB61F
:100A0C00F894DEBF0FBECDBF0E891F8986E08D83A3
:100A1C001A8309838FEF9FE79F838E839E01255E48
:100A2C003F4F488D598D6A8DCE0101960E949800DA
:100A3C00E885F985E00FF11F10822F960FB6F89418
:100A4C00DEBF0FBECDBFDF91CF911F910F910895E7
:100A5C001F920F920FB60F9211240BB60F922F9379
:100A6C003F934F935F936F937F938F939F93AF932A
:100A7C00BF93EF93FF9310928A000E94F706FF91A9
:100A8C00EF91BF91AF919F918F917F916F915F91FA
:100A9C004F913F912F910F900BBE0F900FBE0F9067
:040AAC001F901895EA
:100AB000CF92DF92EF926B01E82E9A01A82FCB0123
:100AC0002115310531F48C199D09EF90DF90CF90FD
:100AD0000895FC015A2F0E94DE066623A1F30196B9
:080AE000A11D21503109ECCFEA
:100AE800CF93DF9380E00E94F205C0E0D1E09983C4
:100AF800888381E00E94F2059B838A8382E00E94BA
:100B0800F2059D838C8383E00E94F2059F838E8388
:060B1800DF91CF9108956A
:100B1E00813051F028F0823059F0833069F00FC0E7
:100B2E0080E80E94E5060BC080EC0E94E50607C037
:100B3E0084E90E94E50603C084ED0E94E5060E944A
:040B4E00C906089537
:100B520020910201309103012115310521F02F313D
:100B6200310521F402C080E501C084E1982F80E0C4
:100B720064E670E00E941C06609561BF83B78160E5
:040B820083BF089590
:100B8600EDE9F0E084E080838081826080831092CA
:100B960098008AE180939900EAE9F0E088E0808392
:100BA60080818068808380818061808378940895C5
:100BB600982F907E96959695903210F025E3922781
:100BC60020E030E007C0990F903210F045E39427FB
:0E0BD6002F5F3F4F22303105B4F3892B089575
:100BE4001092080197B1907E97B997B1892B87B974
:100BF40086B1806486B985B7806285BF8895809107
:0C0C040008018823C1F30E94B306089584
:100C100080EF809361008093620086B1806886B91E
:100C200086B1886086B986B1866086B980E487B966
:080C300080E00E94F205089526
:100C380097FB072E16F4009407D077FD09D00E9481
:100C4800300607FC05D03EF4909581959F4F089596
:080C5800709561957F4F08952E
:100C6000AA1BBB1B51E107C0AA1FBB1FA617B707D2
:100C700010F0A61BB70B881F991F5A95A9F78095EE
:080C80009095BC01CD0108951F
:100C88001F920F920FB60F9211248F9385B78F7D05
:100C980085BF81E0809308018F910F900FBE0F9060
:040CA8001F901895EC
:100CAC0083B982B3806882BB85E88A95F1F700002E
:100CBC0082B38F7782BB85E88A95F1F7000008959F
:100CCC0006C0EFE0F7E23197F1F700C00000909119
:0C0CDC009B0095FFF6CF80939C000895CC
:100CE8008FEF82B980EE81BB88E30E94E5068CE035
:0C0CF8000E94E50686E00E94E5060895D3
:100D04000E94C3050E9474060E9408060E9474058E
:0A0D14000E941E030E94FD060895D0
:100D1E000E94820685B7806285BF889580910B01FF
:0A0D2E008823C1F30E94BE06089559
:100D38000E94A90588B3806488BB88B38F7788BB75
:080D480083B7816083BF0895A9
:100D5000CF93C82F807E0E94DB0591E0C81390E0FE
:060D6000892FCF910895D8
:100D660084B195B196958795929582958F708927CE
:060D76009F70892708951B
:100D7C0080E697E69DBD8CBD84E087BF80937D00A7
:060D8C0085E08EBD089514
:0E0D920087EE93E00197F1F700C0000008958E
:0E0DA0008FE493EC0197F1F700C00000089576
:0E0DAE000E948F0685B7806285BF8895FBCFB7
:0E0DBC0057FD03C05BBF6791089560810895E5
:0C0DCA0092B39F7D92BB0E9456060895D4
:0C0DD60081E00E94E5060E94C906089515
:0C0DE20092B3906292BB0E9456060895E6
:0C0DEE0088B38F7388BB83B713BE0895D1
:0A0DFA008FEF87BB88E783BF0895E1
:040E04000C9400004A
:00000001FF
