:100000000C944F000C94A2010C949A020C949A0246
:100010000C949A020C949A020C949A020C949A02F0
:100020000C949A020C949A020C949A020C949A02E0
:100030000C949A020C949A020C949A020C949A02D0
:100040000C949A020C949A020C949A020C949A02C0
:100050000C949A020C949A020C949A020C949A02B0
:100060000C949A020C949A020C949A020C949A02A0
:100070000C949A020C949A020C947D000C949A02AF
:100080000C949A020C949A020C949A02010001803A
:1000900080018001810000F9018101838000112429
:1000A0001FBECFEFD0E1DEBFCDBFECE8F0E040E017
:1000B00019C0B791A79137912791079107FD0EC0FD
:1000C00097918791EF01F92FE82F0BBF07900D92C1
:1000D000A217B307D9F7FE011BBE04C01D92A217D9
:1000E000B307E1F7ED39F40721F70E946B020C9496
:0600F0007900F894FFCF37
:0300F6003E3E008B
:0100F9000105
:1000FA001F920F920FB60F9211240BB60F922F93E5
:10010A003F934F935F936F937F938F939F93AF9395
:10011A00BF93CF93DF93EF93FF9385B78F7D85BF0F
:10012A0080919C008E3359F0E091820191E09E0FFC
:10013A0090938201F0E0E050FF4F80833DC0E09150
:10014A008201F0E0E050FF4F10821092820180910C
:10015A0000018C3371F40E948E0260E071E080E845
:10016A0040E00E9461011092810181E08093800148
:10017A0023C0C0E0D1E089810E9494028A810E9452
:10018A0094028B810E949402809181018D5F8093F9
:10019A008101803188F010928101809180018F5F06
:1001AA00809380010E94FF0180918001843020F0B9
:1001BA000E948E0210928001FF91EF91DF91CF9100
:1001CA00BF91AF919F918F917F916F915F914F9165
:1001DA003F912F910F900BBE0F900FBE0F901F9063
:0201EA00189566
:1001EC00CF93DF9383B38E70823031F0843031F053
:1001FC00883031F0D0E005C0D1E003C0D2E001C0BE
:10020C00D3E0C4E018C060E08C2F0E94E00183B3FF
:10021C0090E00D2E02C0959587950A94E2F780FD2B
:10022C0005C061E08C2F0E94E00107C061E08C2FBB
:10023C000E94E001CF5FC73030F3C43039F4D130C5
:10024C0001F1D23001F1D330D9F41FC0C53039F4EB
:10025C00D130E9F0D230E9F0D33091F41CC0C63083
:10026C0039F4D130D1F0D230D1F0D33049F419C0B7
:10027C00C73031F4D130B9F0D230B9F0D330B9F055
:10028C0017C083E315C082E313C081E311C086E37A
:10029C000FC085E30DC084E30BC089E309C088E37C
:1002AC0007C087E305C083E203C080E301C08EE290
:0602BC00DF91CF910895CF
:1002C200CF92DF92EF921F93CF93DF936B01E82ED1
:1002D200142F842F0E94FF01C1E0D0E01EC06E37B0
:1002E20089F42196AE2DC6018C0F9D1FA11DD7FD4D
:1002F200AA95FC015A2F0E94810280ED860F0E946E
:1003020094020AC06A3029F41F5F812F0E94FF0104
:1003120003C0862F0E9494022196AE2DC6018C0F37
:100322009D1FA11DD7FDAA95FC015A2F0E94810293
:100332006111D5CFDF91CF911F91EF90DF90CF90D8
:0203420008951C
:100344001F920F920FB60F9211240BB60F922F9398
:100354003F934F935F936F937F938F939F93AF9349
:10036400BF93CF93EF93FF9385B78F7D85BF0E9493
:10037400F600C82F90E00E94310243E066EF70E07F
:1003840080E00E9461018EE290E00E9431028C2F95
:100394000E949402FF91EF91CF91BF91AF919F91F1
:1003A4008F917F916F915F914F913F912F910F901A
:0C03B4000BBE0F900FBE0F901F9018950D
:1003C000613069F445B321E030E0B90102C0660F45
:1003D000771F8A95E2F7CB01842B85BB08956111C5
:1003E0000DC045B321E030E0B90102C0660F771FB0
:0E03F0008A95E2F7CB018095842385BB0895A2
:1003FE00813051F028F0823059F0833069F00FC00F
:10040E0080E80E9488020BC080EC0E94880207C020
:10041E0084E90E94880203C084ED0E9488020E9433
:04042E0073020895B8
:10043200EDE9F0E084E08083808182608083109225
:1004420098008AE180939900EAE9F0E088E08083ED
:100452008081806880838081806180837894089520
:1004620009C02FE738E391E0215030409040E1F796
:1004720000C0000090919B0095FFF3CF80939C00F9
:020482000895DB
:1004840083B982B3806882BB85E88A95F1F700005E
:1004940082B38F7782BB85E88A95F1F700000895CF
:1004A4008FEF82B980EE81BB88E30E9488028CE0E2
:0C04B4000E94880286E00E9488020895E1
:1004C00080EF84BB85BB81E089BFEAE6F0E08081F4
:0604D000826080830895A4
:1004D6000E947A02789485B7806285BF8895FACFA4
:0E04E60087EE93E00197F1F700C00000089543
:0E04F4000E9419020E9452020E9460020895A6
:0E05020057FD03C05BBF6791089560810895A7
:0C05100092B39F7D92BB0E9442020895AE
:0C051C0081E00E9488020E947302089592
:0C05280092B3906292BB0E9442020895C0
:040534000C94000023
:00000001FF
