:100000000C9452000C9480060C9480060C9480068C
:100010000C9480060C9480060C9480060C94800648
:100020000C9480060C9480060C9480060C94800638
:100030000C9480060C9480060C946F040C9480063B
:100040000C9480060C9480060C94F0000C948006AE
:100050000C9444030C9480060C9480060C94800647
:100060000C9480060C9480060C9480060C948006F8
:100070000C9480060C9410040C9441040C9480069B
:100080000C9480060C9480060C948006DE04DE043A
:10009000D004D204D404D604D804DA04DC04010069
:1000A0000E94800011241FBECFEFD0E1DEBFCDBF84
:1000B000EEE9F0E040E019C0B791A79137912791A0
:1000C000079107FD0EC097918791EF01F92FE82F57
:1000D0000BBF07900D92A217B307D9F7FE011BBE05
:1000E00004C01D92A217B307E1F7E33AF40721F722
:0C00F0000E945F060C947C00F894FFCF87
:1000FC003E003C4E6F20646174610A003C312D4D12
:10010C00656D2044756D700A322D4C6173742045F9
:10011C006E7472790A332D52657374617274003C7B
:10012C004D656D6F72792044756D703A0A003C4CC8
:10013C0061737420456E7472793A0A003C7E304EBD
:10014C0065772044617461205265636569766564E6
:10015C00003C524553455454494E472053454E5349
:10016C004F52003C74696D656F75742064757261D3
:10017C0074696F6E0A28302D3829283020746F204E
:10018C0064697361626C65293A003C5761746368F9
:10019C00646F672074696D65720A28302D382928C0
:1001AC003020746F2064697361626C65293A003C7D
:1001BC00536176696E672073657474696E6773003A
:1001CC003E3E003C496E76616C696420636F6D6DD8
:0401DC00616E6400EC
:1001E0001F920F920FB60F9211240BB60F920F931E
:1001F0001F932F933F934F935F936F937F938F93AF
:100200009F93AF93BF93EF93FF9385B78F7D85BF88
:10021000A895E091900E81E08E0F8093900EF0E013
:100220009CB1EE5FFE4F9083833010F01092900EE1
:10023000E091900EF0E0EF5FFE4F80818E3209F08A
:1002400078C08091880E8823A1F1A091020180EDF1
:100250008A0F893008F06BC0B0E0D097AA0FBB1F9F
:10026000AA0FBB1FAA0FBB1F20E432E44FE050E0EF
:100270000E9471068B019C01992324F401501C4FAC
:100280002F4F3F4FD901C801072E7AE0B595A795AA
:10029000979587957A95D1F7702D90938A0E8093D4
:1002A000890E1092880E6CEC71E080E00E9492033F
:1002B0003EC08091860E882379F0809102018053A0
:1002C0008930A8F58093870E1092860E6CEC71E051
:1002D00080E00E9492032BC080910201823349F09A
:1002E000833361F0813369F4789480E00E94AE0139
:1002F0001EC0789481E00E94AE0119C00E943206AF
:1003000016C078946FEC71E080E00E949203109226
:10031000900E2FEF84E39CE0215080409040E1F765
:1003200000C0000068E071E080E00E94920310923B
:10033000900EFF91EF91BF91AF919F918F917F911F
:100340006F915F914F913F912F911F910F910F905E
:0C0350000BBE0F900FBE0F901F90189571
:10035C00EF92FF920F931F93CF93DF93CDB7DEB73E
:10036C0029970FB6F894DEBF0FBECDBF91E09093E6
:10037C00910E20918B0E30918C0E232BA1F46EEFED
:10038C0070E080E00E9492032FEF84E39CE0215008
:10039C0080409040E1F700C0000068E071E080E030
:1003AC000E94920379C0811140C06BE271E080E041
:1003BC000E9492032FE788E391E021508040904007
:1003CC00E1F700C00000E12CF12C27C0F701EA5F37
:1003DC00FD4F80818E010F5F1F4FB8018F710E94FE
:1003EC0054058EE28D83A80160E80C5F1F4F24E05A
:1003FC0030E0CE0106960E948705B80180E80E9485
:10040C0092032FE788E391E0215080409040E1F780
:10041C0000C000002FEFE21AF20A80918B0E90912F
:10042C008C0EE816F90690F235C06AE371E080E0B4
:10043C000E9492038FE798E321E081509040204086
:10044C00E1F700C00000E0918B0EF0918C0EEB5F99
:10045C00FD4F80818E010F5F1F4FB8018F710E947D
:10046C0054058EE28D83A80160E80C5F1F4F24E0D9
:10047C0030E0CE0106960E948705B80180E80E9404
:10048C0092038FE798E321E0815090402040E1F700
:10049C0000C000001092910E29960FB6F894DEBFA2
:1004AC000FBECDBFDF91CF911F910F91FF90EF90B9
:0204BC000895A1
:1004BE000F931F93CF9380E090E00E94EB05809303
:1004CE00880E8093860EC0E000E010E00BC08C2FEB
:1004DE0090E001960E94EB05082BC11102C0102F6F
:1004EE000027CF5FC23098F383E090E00E94EB05C7
:1004FE008093870E8091880E882351F06FE671E00D
:10050E0080E00E94920310928A0E1092890E09C00A
:10051E0010938A0E0093890E04C085B7806285BF42
:10052E0088958091880E8111F8CF8091860E882350
:10053E0099F066E971E080E00E9492032FE78AE16C
:10054E0096E0215080409040E1F700C0000004C0CA
:10055E0085B7806285BF88958091860E8111F8CF10
:10056E008FE493EC0197F1F700C000006BEB71E0A4
:10057E0080E00E9492039FE72AE186E0915020409E
:10058E008040E1F700C0000060E080E090E00E9453
:10059E00DA0560918A0E81E090E00E94DA056091A2
:1005AE00890E82E090E00E94DA056091870E83E06A
:1005BE0090E00E94DA058091890E90918A0E9195B5
:1005CE008195910990938A0E8093890ECF911F91F8
:0405DE000F910895DC
:1005E200CF93DF93C82F882344F48093930E81E046
:1005F2008093920E0E94EE0443C081E00E943A056D
:10060200D091930EDD23FCF46D2F8C2F0E942606D1
:100612008F3F89F4C07EC03259F48D2F0E949A0414
:100622001092920E80E40E94A0050E94180628C033
:100632000E94150525C01092920E80EE0E94A00520
:100642000E9418061DC08C2F0E943E068F3F99F40F
:10065200C07EC03431F41092920E80E00E943A05BE
:100662000FC0C03E69F48091920E813049F48D2F03
:100672000E94180605C080EE0E94A0050E9418067E
:06068200DF91CF91089505
:100688001F920F920FB60F9211240BB60F922F9351
:100698003F934F935F936F937F938F939F93AF9302
:1006A800BF93EF93FF9385B78F7D85BF90918F0E92
:1006B800E92FF0E0E95FFE4F80818823C1F02091A7
:1006C8008E0E2223A1F09F5F90938F0E0E94490601
:1006D800E0918F0E80918D0EE81731F0F0E0E95F20
:1006E800FE4F8081811107C010928E0E04C01092B7
:1006F8008F0E10928D0EFF91EF91BF91AF919F9148
:100708008F917F916F915F914F913F912F910F90B2
:0C0718000BBE0F900FBE0F901F901895A5
:10072400CF92DF92EF921F93CF93DF936B01E82E6A
:1007340004C085B7806285BF889580918E0E811133
:10074400F8CF11E010938E0E6E2DA60187E091E094
:100754000E940906C7E0D1E0FE0101900020E9F7FC
:10076400CF0122E030E04CEF50E060E001970E94BE
:1007740087058E2DB6010E94B7058E5F80938D0E7E
:10078400E82FF0E0EA5FFE4F108210938F0E88810D
:100794000E944906DF91CF911F91EF90DF90CF9097
:0207A4000895B6
:1007A600982F907E262F2295220F220F207C669569
:1007B6006695603210F085E3682770E0660F771F54
:1007C600422F441F4427441F642B220F603210F02F
:1007D60085E36827462F50E0440F551F221F222726
:1007E600221F242B203210F085E3282760E070E0DA
:1007F6000FC030E0220F331F492F441F4427441FE8
:10080600242B990F203210F085E328276F5F7F4F46
:0A0816006830710574F3822F089515
:100820001F920F920FB60F9211240BB60F922F93B7
:100830003F934F935F936F937F938F939F93AF9368
:10084000BF93EF93FF9385B78F7D85BF80EE90E0D8
:100850000E9418061092930E1092920EFF91EF9143
:10086000BF91AF919F918F917F916F915F914F91C8
:100870003F912F910F900BBE0F900FBE0F901F90C6
:020880001895C9
:100882001F920F920FB60F9211240BB60F922F9355
:100892003F934F935F936F937F938F939F93AF9306
:1008A200BF93EF93FF9385B78F7D85BF80919C00A7
:1008B20090E00E94F102FF91EF91BF91AF919F9161
:1008C2008F917F916F915F914F913F912F910F90F7
:0C08D2000BBE0F900FBE0F901F901895EA
:1008DE001F920F920FB60F9211240BB60F922F93F9
:1008EE003F934F935F936F937F938F939F93AF93AA
:1008FE00BF93EF93FF9385B78F7D85BF0E9415053C
:10090E00FF91EF91BF91AF919F918F917F916F91D9
:10091E005F914F913F912F910F900BBE0F900FBE95
:06092E000F901F901895C8
:10093400E0918B0EF0918C0EEA5FFD4F80830E9454
:10094400C90578948091910E81111BC080918B0E02
:1009540090918C0E83709927892B99F468E471E047
:1009640080E00E9492032FEF84E39CE021508040BA
:100974009040E1F700C0000068E071E080E00E9470
:04098400920308953D
:10098800E091870E8E2F90E089309105A0F4FC014C
:10099800EA5BFF4F0C94680621E00DC022E00BC013
:1009A80023E009C024E007C025E005C026E003C015
:1009B80027E001C020E0222361F088B3816088BB72
:1009C8002770286088E10FB6F894A89581BD0FBEFE
:0409D80021BD0895A0
:1009DC00811110C08091890E90918A0E009751F070
:1009EC009DBD8091890E8CBD1FBC85E08EBD84E0C1
:1009FC0087BF08958091890E90918A0E009771F0AF
:100A0C00909389008091890E8093880010928B00BE
:0E0A1C0085E080938A0084E080937D00089539
:100A2A0080E00E94A0058093930E0E94180681E040
:100A3A008093920E80E00E94EE042FE78AE196E00E
:100A4A00215080409040E1F700C000006DE571E060
:100A5A0080E00E9492032FE78AE196E021508040CD
:0A0A6A009040E1F700C0000008957D
:100A740081110AC08EB58E7F8EBD8EB58B7F8EBDE3
:100A840087B78B7F87BF0895EAE8F0E080818E7F87
:100A9400808380818B7F8083EDE7F0E080818B7F92
:040AA40080830895AE
:100AA800FB011182982F92959F7090839A3018F4C9
:100AB800905D908302C0995C90838F7081838A30A7
:100AC80018F4805D818302C0895C81838CE2828313
:040AD80013820895E8
:100ADC0087B3816087BB80E885BF96E090939500D3
:100AEC00109290008AE189B928ED2AB990939D0063
:100AFC00109298008093990088E980939A007894DA
:020B0C0008954A
:100B0E00CF92DF92EF92DC016A01E62E280F391F99
:100B1E00A217B30751F0F6015E2D0E9479066D9370
:100B2E004FEFC41AD40AE40AF3CFEF90DF90CF90C0
:020B3E00089518
:100B4000982F907E96959695903210F025E39227F7
:100B500020E030E007C0990F903210F045E3942771
:0E0B60002F5F3F4F22303105B4F3892B0895EB
:100B6E009B01482FA82FCB01FC015A2F0E9479061A
:100B7E00662319F00196A11DF7CF642FA901841BDE
:040B8E00950B089526
:100B920080918B0E90918C0E019690938C0E809387
:100BA2008B0E80389C4020F010928C0E10928B0E8F
:020BB2000895A4
:100BB40006C0E7EEF3E03197F1F700C00000E199D9
:100BC400F8CF1FBA8EBB6DBB84E08CBB82E08CBBBC
:020BD400089582
:100BD60006C0E7EEF3E03197F1F700C00000E199B7
:0E0BE600F8CF1FBA8EBB81E08CBB8DB3089593
:100BF400A29FB001B39FC001A39F700D811D11245A
:0E0C0400911DB29F700D811D1124911D089548
:100C12009A01462FDC01F901542F0E9479066D9347
:0E0C2200662321F02F5F3F4F4F4FF5CF08950F
:100C300006C0E7EEF3E03197F1F700C000009091B5
:0C0C40009B0095FFF6CF80939C00089568
:100C4C00CF93C82F0E94D303CF718C1302C08FEFA8
:080C5C0001C080E0CF91089572
:100C64000E946E050E945F020E94150568E071E013
:080C740080E00E949203089544
:100C7C00CF93C82F807E0E94A00591E0C81390E00E
:060C8C00892FCF910895AD
:100C920006C0E7EEF3E03197F1F700C000005D9B7C
:060CA200F8CF8CB90895A3
:100CA8000E94FA05A59F900DB49F900DA49F800DFA
:060CB800911D11240895B6
:100CBE000E9432060E94C40485B7806285BF889563
:020CCE00FBCF5A
:100CD000EE0FFF1F0024001C0BBE0790F691E02DC5
:020CE000099475
:100CE200B7FF0C9454060E945406821B930B08957E
:0E0CF20057FD03C05BBF6791089560810895B0
:040D00000C9400004F
:00000001FF
